S02300004779726F73636F706520616E6420416363656C65726F6D657465722E7372656398
S11300000C942A000C9447000C9447000C9447006D
S11300100C9447000C9447000C9447000C944A003D
S11300200C94CC000C94A3000C9447000C9447004F
S11300300C9447000C9447000C9447000C94470020
S11300400C9447000C9447000C9447000C94470010
S11300500C94470011241FBECFE5D8E0DEBFCDBF0E
S113006010E0A0E6B0E0EEEEF1E002C005900D92E3
S1130070A036B107D9F720E0A0E6B0E001C01D9298
S1130080AB36B207E1F70E9449000C94F5000C94DA
S11300900000FFCF1F920F920FB60F9211242F93DF
S11300A08F939F938091600090916100019690934B
S11300B06100809360008091600090916100883EAF
S11300C09340C8F110926100109260008091620028
S11300D090916300019690936300809362008091F5
S11300E0620090916300883E934028F1109263006F
S11300F010926200809164008F5F8093640080910D
S113010064008C33C0F010926400809165008F5FAE
S113011080936500809165008C3368F010926500CF
S1130120809166008F5F80936600809166008831BD
S113013010F0109266009F918F912F910F900FBE37
S11301400F901F9018951F920F920FB60F921124C3
S11301502F933F934F935F936F937F938F939F93CB
S1130160AF93BF93EF93FF93E0916900F0916A001E
S1130170309709F00995FF91EF91BF91AF919F914D
S11301808F917F916F915F914F913F912F910F903C
S11301900FBE0F901F9018951F920F920FB60F92DB
S11301A011242F933F934F935F936F937F938F9378
S11301B09F93AF93BF93EF93FF93E0916700F09108
S11301C06800309709F00995FF91EF91BF91AF91C5
S11301D09F918F917F916F915F914F913F912F915B
S11101E00F900FBE0F901F901895F894FFCF4C
S9030000FC
