:100000000C9441000C945E000C945E000C945E0015
:100010000C945E000C945E000C945E000C94EB0457
:100020000C946D050C9444050C945E000C945E00D9
:100030000C945E000C945E000C945E000C945E00C8
:100040000C945E000C945E000C945E000C945E00B8
:100050000C945E00084AD73B3BCE016E84BCBFFDCA
:10006000C12F3D6C74319ABD56833DDA3D00C77F88
:1000700011BED9E4BB4C3E916BAAAABE0000008021
:100080003F0011241FBECFE5D8E0DEBFCDBF10E09A
:10009000A0E6B0E0E0E5F2E102C005900D92A437E1
:1000A000B107D9F720E0A4E7B0E001C01D92A03865
:1000B000B207E1F70E9478010C9426090C94000025
:1000C0006234C1F018F4613431F00895633409F1F9
:1000D000643471F1089529B330E0B90102C0759517
:1000E00067958A95E2F7CB0191E080FF90E0FA01F5
:1000F0009083089526B330E0B90102C075956795E5
:100100008A95E2F7CB0191E080FF90E0FA019083BD
:10011000089523B330E0B90102C0759567958A95BB
:10012000E2F7CB0191E080FF90E0FA01908308951F
:1001300020B330E0B90102C0759567958A95E2F762
:10014000CB0191E080FF90E0FA01908308950E9436
:100150009605089511B880E280B984E086BF0895BD
:1001600084EA86BF06B607FEFDCF089583B984E80A
:1001700086BF06B607FEFDCF089584EC86BF06B69F
:1001800007FEFDCF83B1089584E886BF06B607FE5B
:10019000FDCF83B1089584E986BF089598B39D7F0C
:1001A00098BB8BBB88B3816088BB82E08A95F1F7EE
:1001B00000C088B38E7F88BB8FE99FE00197F1F77D
:1001C00000C00000089598B3926098BB8BBB82E09A
:1001D0008A95F1F700C088B3816088BB88B38E7FB1
:1001E00088BB8FE99FE00197F1F700C000000895F8
:1001F000CF93DF93EC0103C021960E94E300888136
:100200008111FACFDF91CF9108958FEF8ABB87B329
:10021000826087BB87B3816087BB88E30E94CE0082
:100220008FE00E94CE0081E00E94CE008FE99FE027
:100230000197F1F700C0000083E80E94CE0080E63D
:1002400090E00E94F8008BE80E94CE0084E690E0E7
:100250000E94F8008CEC0E94CE008AE690E00E949A
:10026000F80008958F929F92AF92BF92CF92DF9243
:10027000EF92FF92CF93DF93CDB7DEB72A970FB6F9
:10028000F894DEBF0FBECDBF6B017C010E94F40667
:100290004B015C018CE00E94CE0080E80E94CE0001
:1002A00020E030E0A901C701B6010E947D06882345
:1002B0001CF48DE20E94E3004AE0BE016F5F7F4FB5
:1002C000C4010E94F108CE0101960E94F8002A960E
:1002D0000FB6F894DEBF0FBECDBFDF91CF91FF9078
:1002E000EF90DF90CF90BF90AF909F908F90089548
:1002F000CF93DF93CDB7DEB7AF970FB6F894DEBFDD
:100300000FBECDBF19821A821B821C821E821D82E3
:1003100018861F821A8619861C861B861E861D86D5
:10032000188A1F861A8A198A1C8A1B8A1D8A1E8AA5
:100330001F8A188E198E1A8E1B8E1C8E0E94A7047F
:100340000E9405010E94A7000E945A031DA21EA23E
:100350001FA218A6812C912C81E08FA71EA61DA696
:100360001CA61BA61AA6A12CB12C212C312C19A637
:100370001CA2AE014F5F5F4F62E482E00E9460000A
:100380008981813009F0C6C0AE01435F5F4FBE0175
:10039000655F7F4FCE0109960E946A03AE014D5EF4
:1003A0005F4FBE016F5E7F4FCE010F960E94AB0381
:1003B000BE01675E7F4FCE0145960E94EC0380919F
:1003C000740081119FC09FEF891A990A81E08816F5
:1003D000910421F40E94B9040E94B4048E01095FC3
:1003E0001F4F9E012B5F3F4FAE014C5F5F4FBE0121
:1003F0006D5F7F4FCE0102960E94CA049FA59111A6
:1004000075C08AA5A82FB0E020E83EEE46E350E094
:100410000E94E6086B017C019BA5292F30E0A0E635
:10042000BAEE0E94D708C60ED71EE81EF91E8CA58C
:10043000282F30E0A8EEB3E00E94D708C60ED71EE2
:10044000E81EF91E8DA59EA5C80ED91EE11CF11C43
:10045000AA81B0E020E83EEE46E350E00E94E608C4
:100460002B013C012B8130E0A0E6BAEE0E94D708B8
:10047000460E571E681E791E2C8130E0A8EEB3E0B0
:100480000E94D708DC01CB01840D951DA61DB71D68
:100490002D813E81820F931FA11DB11D8C159D05DD
:1004A000AE05BF0538F0BC01CD016C197D098E0980
:1004B0009F0909C08C199D09AE09BF09BC01CD0176
:1004C000745A894D9A4F611571058105910571F036
:1004D0000E942A079B01AC0160E070E68AE697E47F
:1004E0000E9482066DA37EA38FA398A79A8199A7E5
:1004F0003B802C80AD80BE80BEA6ADA62CA63BA6C0
:100500009AA71FA69091740081E0892780937400B8
:1005100081E08CA39CA1913009F089C08E01035E1B
:100520001F4F9E01215E3F4FAE014F5D5F4FBE01E9
:100530006E5D7F4FCE0183960E94CA04ABA1B0E0EE
:1005400020E83EEE46E350E00E94E6086B017C01A5
:100550002AA130E0A0E6BAEE0E94D708C60ED71E48
:10056000E81EF91E29A130E0A8EEB3E00E94D708EA
:10057000C60ED71EE81EF91E8F8D98A1C80ED91E73
:10058000E11CF11C89A5A82FB0E020E83EEE46E36F
:1005900050E00E94E6082B013C01232D30E0A0E64C
:1005A000BAEE0E94D708460E571E681E791E222DED
:1005B00030E0A8EEB3E00E94D708DC01CB01840D47
:1005C000951DA61DB71D8A0D9B1DA11DB11DC81629
:1005D000D906EA06FB0628F0C81AD90AEA0AFB0A75
:1005E0000AC0C81AD90AEA0AFB0A94EAD91A99ED8C
:1005F000E90A9AEFF90A88E9C8168AE3D806E104FD
:10060000F104A8F00E94B9041A821B821C821E8287
:100610001D82812C912C1EA61DA61CA61BA61AA607
:10062000A12CB12C212C312C19A692E09CA36DA1F8
:100630007EA18FA198A50E9432019BCEEF92FF92DE
:100640000F931F93CF93DF93C82F8B01D42F0E945A
:10065000B00080ED0E94B6008C2F0E94B6000E9470
:10066000CB000E94B00081ED0E94B600C0E008C03F
:100670007801EC0EF11C0E94BD00F7018083CF5F72
:100680002C2F30E08D2F90E001972817390784F345
:100690008D2F90E00197E801C80FD91F0E94C40078
:1006A00088830E94CB00DF91CF911F910F91FF9023
:1006B000EF9008950E94AA000E94B00080ED0E9471
:1006C000B6008BE60E94B60080E00E94B6000E9451
:1006D000CB000895CF92DF92EF92FF920F931F937A
:1006E000CF93DF9300D000D000D0CDB7DEB76C0140
:1006F0007B018A0146E0BE016F5F7F4F8BE30E9462
:100700001E03898190E0982F88272A81822BF60189
:10071000918380838B8190E0982F88272C81822B76
:10072000F701918380838D8190E0982F88272E8117
:10073000822BF8019183808326960FB6F894DEBF52
:100740000FBECDBFDF91CF911F910F91FF90EF9022
:10075000DF90CF900895CF92DF92EF92FF920F93A8
:100760001F93CF93DF9300D000D000D0CDB7DEB77A
:100770006C017B018A0146E0BE016F5F7F4F83E41D
:100780000E941E03898190E0982F88272A81822B5E
:10079000F601918380838B8190E0982F88272C81AC
:1007A000822BF701918380838D8190E0982F882799
:1007B0002E81822BF8019183808326960FB6F894C0
:1007C000DEBF0FBECDBFDF91CF911F910F91FF9084
:1007D000EF90DF90CF9008952F923F924F925F92CB
:1007E0006F927F928F929F92AF92BF92CF92DF9241
:1007F000EF92FF920F931F93CF93DF93CDB7DEB7A6
:100800002A970FB6F894DEBF0FBECDBF8C011B0137
:10081000AE014B5F5F4FBE016D5F7F4FCE01019612
:100820000E946A0369817A81072E000C880B990B5C
:100830000E942C0720E030E040E858E30E940B08BB
:100840004B015C016B817C81072E000C880B990B9E
:100850000E942C0720E030E040E858E30E940B089B
:100860006B017C016D817E81072E000C880B990B3A
:100870000E942C0720E030E040E858E30E940B087B
:100880002B013C01A7019601C701B6010E940B088C
:100890006F83788789879A87A3019201C301B20188
:1008A0000E940B082B013C019B01AC016F817885F4
:1008B00089859A850E949F050E947E089B01AC0154
:1008C000C501B4010E941E0620EE3EE245E652E458
:1008D0000E940B08F8016083718382839383A501D2
:1008E0009401C501B4010E940B089B01AC01C30136
:1008F000B2010E949F050E947E089B01AC01C701C6
:10090000B6010E941E0620EE3EE245E652E40E9439
:100910000B08F10160837183828393832A960FB65B
:10092000F894DEBF0FBECDBFDF91CF911F910F9125
:10093000FF90EF90DF90CF90BF90AF909F908F90FF
:100940007F906F905F904F903F902F9008951FBCC5
:100950001EBC8EB588608EBD87E090E09BBD8ABDD1
:1009600089B7806189BF08958EB581608EBD789406
:100970000895F89410927B0010927A0010927900FA
:100980001092780010927700109276001092750005
:10099000789408950F931F93F894E0917B00DC0105
:1009A000EC9380917A00FB01808380917900DA01D9
:1009B0008C938091770090917800F90191838083E6
:1009C0008091750090917600D8018D939C937894D6
:1009D0001F910F9108951F920F920FB60F9211243D
:1009E0002F938F939F93809175009091760001963D
:1009F00090937600809375008091750090917600B9
:100A0000883E9340C8F11092760010927500809154
:100A1000770090917800019690937800809377000A
:100A20008091770090917800883E934028F1109251
:100A3000780010927700809179008F5F8093790021
:100A4000809179008C33C0F01092790080917A0007
:100A50008F5F80937A0080917A008C3368F01092D7
:100A60007A0080917B008F5F80937B0080917B0078
:100A7000883110F010927B009F918F912F910F90F1
:100A80000FBE0F901F9018951F920F920FB60F92E6
:100A900011242F933F934F935F936F937F938F9383
:100AA0009F93AF93BF93EF93FF93E0917E00F091FC
:100AB0007F00309709F00995FF91EF91BF91AF91B9
:100AC0009F918F917F916F915F914F913F912F9166
:100AD0000F900FBE0F901F9018951F920F920FB698
:100AE0000F9211242F933F934F935F936F937F93B4
:100AF0008F939F93AF93BF93EF93FF93E0917C000D
:100B0000F0917D00309709F00995FF91EF91BF9129
:100B1000AF919F918F917F916F915F914F913F9195
:100B20002F910F900FBE0F901F90189583E389B9F6
:100B300010BC88E18AB986E880BD08955058BB276B
:100B4000AA270E94B6050C94C9070E94BB0738F07B
:100B50000E94C20720F039F49F3F19F426F40C9448
:100B600091070EF4E095E7FB0C948B07E92F0E94A8
:100B7000DA0758F3BA17620773078407950720F05E
:100B800079F4A6F50C94FC070EF4E0950B2EBA2F21
:100B9000A02D0B01B90190010C01CA01A001112483
:100BA000FF27591B99F0593F50F4503E68F11A162F
:100BB000F040A22F232F342F4427585FF3CF4695C0
:100BC00037952795A795F0405395C9F77EF41F16E2
:100BD000BA0B620B730B840BBAF09150A1F0FF0FAC
:100BE000BB1F661F771F881FC2F70EC0BA0F621F98
:100BF000731F841F48F4879577956795B795F79588
:100C00009E3F08F0B0CF9395880F08F09927EE0F1C
:100C10009795879508950E94BB0760F080E891E062
:100C200009F49EEF0E94C20728F040E851E071F4F9
:100C30005EEF0CC00C9491070C94FC07E92FE07850
:100C40000E94DA0740F3092E052AB1F32617370769
:100C50004807590738F00E2E07F8E02569F0E0251F
:100C6000E0640AC0EF6307F8009407FADB01B901FA
:100C70009D01DC01CA01AD01EF930E9499060E941B
:100C8000C9070E944E065F91552339F02BED3FE0D6
:100C900049E450FD49EC0C949F050895DF93DD274E
:100CA000B92FBF7740E85FE31616170648075B07C2
:100CB00018F4D92F0E9403089F938F937F936F930B
:100CC0000E94BE08E4E5F0E00E9494070E94C90774
:100CD0002F913F914F915F910E941E08DD2351F0AB
:100CE0009058A2EA2AED3FE049EC5FE3D0785D2717
:100CF0000E94B605DF910C94C9070E94670708F4AB
:100D000081E008950E9496060C94C9070E94C207CC
:100D100058F00E94BB0740F029F45F3F29F00C9483
:100D20008B0751110C94FD070C9491070E94DA0770
:100D300068F39923B1F3552391F3951B550BBB270A
:100D4000AA2762177307840738F09F5F5F4F220F4F
:100D5000331F441FAA1FA9F335D00E2E3AF0E0E846
:100D600032D091505040E695001CCAF72BD0FE2F90
:100D700029D0660F771F881FBB1F26173707480724
:100D8000AB07B0E809F0BB0B802DBF01FF279358DC
:100D90005F4F3AF09E3F510578F00C948B070C940E
:100DA000FD075F3FE4F3983ED4F38695779567950A
:100DB000B795F7959F5FC9F7880F911D9695879511
:100DC00097F90895E1E0660F771F881FBB1F621730
:100DD00073078407BA0720F0621B730B840BBA0BEE
:100DE000EE1F88F7E09508950E94FB066894B11104
:100DF0000C94FD0708950E94E20788F09F5798F031
:100E0000B92F9927B751B0F0E1F0660F771F881F0F
:100E1000991F1AF0BA95C9F714C0B13091F00E9429
:100E2000FC07B1E008950C94FC07672F782F882702
:100E3000B85F39F0B93FCCF3869577956795B39550
:100E4000D9F73EF490958095709561957F4F8F4FBF
:100E50009F4F0895E89409C097FB3EF490958095C4
:100E6000709561957F4F8F4F9F4F9923A9F0F92F70
:100E700096E9BB279395F695879577956795B795EE
:100E8000F111F8CFFAF4BB0F11F460FF1BC06F5FD4
:100E90007F4F8F4F9F4F16C0882311F096E911C0E6
:100EA000772321F09EE8872F762F05C0662371F007
:100EB00096E8862F70E060E02AF09A95660F771F1B
:100EC000881FDAF7880F9695879597F90895990FF7
:100ED0000008550FAA0BE0E8FEEF16161706E80704
:100EE000F907C0F012161306E407F50798F0621B25
:100EF000730B840B950B39F40A2661F0232B242BFA
:100F0000252B21F408950A2609F4A140A6958FEF18
:100F1000811D811D089597F99F6780E870E060E06A
:100F200008959FEF80EC0895DF93CF931F930F9365
:100F3000FF92EF92DF927B018C01689406C0DA2E5B
:100F4000EF010E941E08FE01E894A59125913591BC
:100F500045915591A6F3EF010E94B605FE01970158
:100F6000A801DA9469F7DF90EF90FF900F911F913D
:100F7000CF91DF91089500240A94161617061806DB
:100F80000906089500240A9412161306140605068D
:100F90000895092E0394000C11F4882352F0BB0F1E
:100FA00040F4BF2B11F460FF04C06F5F7F4F8F4F81
:100FB0009F4F089557FD9058440F551F59F05F3FBC
:100FC00071F04795880F97FB991F61F09F3F79F06B
:100FD00087950895121613061406551FF2CF4695ED
:100FE000F1DF08C0161617061806991FF1CF86956F
:100FF0007105610508940895E894BB276627772753
:10100000CB0197F908959B01AC0160E070E080E8A6
:101010009FE30C9482060E941E080C94C9070E944C
:10102000BB0738F00E94C20720F0952311F00C9402
:101030008B070C94910711240C94FD070E94DA078A
:1010400070F3959FC1F3950F50E0551F629FF0011B
:10105000729FBB27F00DB11D639FAA27F00DB11D34
:10106000AA1F649F6627B00DA11D661F829F2227BD
:10107000B00DA11D621F739FB00DA11D621F839F44
:10108000A00D611D221F749F3327A00D611D231F1A
:10109000849F600D211D822F762F6A2F11249F5768
:1010A00050409AF0F1F088234AF0EE0FFF1FBB1F6B
:1010B000661F771F881F91505040A9F79E3F51052A
:1010C00080F00C948B070C94FD075F3FE4F3983E8F
:1010D000D4F3869577956795B795F795E7959F5FD4
:1010E000C1F7FE2B880F911D9695879597F9089566
:1010F00019F416F40C9491070C94C2080E94E207AC
:10110000B8F39923C9F3B6F39F57550B87FF0E9495
:10111000D0080024A0E640EA9001805856959795A3
:1011200028F4805C660F771F881F20F0261737078A
:10113000480730F4621B730B840B202931294A2B9A
:10114000A69517940794202531254A2758F7660F4E
:10115000771F881F20F026173707480730F4620BE7
:10116000730B840B200D311D411DA09581F7B90132
:10117000842F9158880F9695879508959B01AC010F
:101180000C940B089F3F31F0915020F48795779590
:101190006795B795880F911D9695879597F908954E
:1011A00091505040660F771F881FD2F70895A29F75
:1011B000B001B39FC001A39F700D811D1124911D2B
:1011C000B29F700D811D1124911D08950E94D708B2
:1011D000A59F900DB49F900DA49F800D911D11248B
:1011E0000895BB274A3031F4992322F4BDE290954B
:1011F00081959F4F0C94FD08BB27FB015527AA271B
:10120000880F991FAA1FA41710F0A41B8395505193
:10121000B9F7A05DAA3308F0A95DA193009779F70B
:10122000B111B1931192CB010C941609DC01FC01B0
:10123000672F71917723E1F7329704C07C916D930A
:1012400070836291AE17BF07C8F30895F894FFCF7B
:1012500053504D00436F756E740054696D650020E6
:04126000202020002A
:00000001FF
